:020000040800F2
:1000000000400020C901000819020008151E000860
:100010001902000819020008190200080000000077
:1000200000000000000000000000000019020008AD
:10003000190200080000000019020008891E0008CB
:100040001902000819020008190200081902000824
:100050001902000819020008190200081902000814
:100060001902000819020008190200081902000804
:1000700019020008190200081902000819020008F4
:100080001902000819020008351D000819020008AD
:1000900019020008190200081902000819020008D4
:1000A000651D00084D1D000819020008190200080E
:1000B00019020008000000000000000019020008FA
:1000C00019020008190200081902000800000000C7
:1000D0001902000819020008A91D000819020008E9
:1000E000B91E0008190200081902000800000000EB
:1000F0000000000000000000000000000000000000
:1001000000000000000000000000000019020008CC
:1001100000000000000000001902000800000000BC
:1001200000000000000000000000000000000000CF
:1001300000000000000000000000000000000000BF
:100140001902000819020008000000000000000069
:10015000000000000000000000000000000000009F
:100160001902000819020008190200081902000803
:10017000190200080000000000000000000000005C
:08018000000000001902000854
:1001880010B5054C237833B9044B13B10448AFF3C9
:1001980000800123237010BD6C07002000000000C0
:1001A800F07F000808B5034B1BB103490348AFF3C0
:1001B800008008BD0000000070070020F07F0008E4
:1001C800DFF834D0002103E00C4B5B584350043176
:1001D8000B480C4B42189A42F6D30B4A02E0002314
:1001E80042F8043B094B9A42F9D302F059FD07F053
:1001F800CFFE00F045F8FEE700400020C882000866
:10020800000000206C0700206C070020B00A0020C6
:10021800FEE7000030B500219DB00C4605A8282255
:1002280007F0DAFE21460FA8342202250194009433
:1002380002940394049407F0CFFE01224FF4803314
:100248004FF4E01105A80592099206930D930E91BB
:100258000C9503F0D5FB0F2229464FF480636846BE
:100268000092039301950294049403F09BFE4FF4CB
:1002780080530FA817940F9303F0DAFF1DB030BD19
:100288002DE98048A3B0002402F066FDFFF7C2FF05
:10029800AF4A17941694189419941A945169AD4852
:1002A800AD4DDFF8D0B2AD4E41F400215161516936
:1002B80001F4002103910399516941F480015161CE
:1002C800516901F4800104910499516941F40031A4
:1002D8005161516901F4003105910599516941F461
:1002E80080215161526902F4802206924FF4005134
:1002F8002246069F03F07EFB22464FF4E0519848C1
:1003080003F078FB974A964817924FF4005316A9C2
:1003180001271693189403F083FA4FF4005316A993
:100328008C4816934FF002084FF00309189419945B
:10033800179703F075FA4FF4E05216A988481692F9
:100348001797CDF86080CDF8649003F069FA2146DC
:10035800302216A807F040FE4FF0040A20234FF081
:10036800A0414FF48032284685E80600EB60AC6077
:100378002F61EC616C622C63EF62C5F820806C63BE
:10038800AC61AF63C5F814A00F9410941194129443
:100398001394149402F004FD402216A928462192D1
:1003A800169717971994CDF87090CDF860A02094FF
:1003B8001E941D941F971B941A9402F099FF07230B
:1003C80016A928461693CDF85C8002F091FF062303
:1003D80016A928461693CDF85C9002F089FF0522ED
:1003E8000FA928461192CDF83C80109712941394C7
:1003F800149402F0F1FD08230FA928460F93CDF8B5
:10040800408002F0E9FD584ACBF80020584616947F
:100418001794189403F0CAF93C23224616A95846A3
:100428001693CDF85C8003F0D7F921462C2216A844
:100438000A9407940F94109411941294139414949A
:1004480015940B940C940D940E940894099407F049
:10045800C3FD20224FF480734449B26030464FF404
:1004680096623160F2603361019374607761B461C0
:1004780003F0DEFF304604F03FF8062310220AA9F5
:1004880030460A930B92702504F098F807A9304675
:1004980007950894099404F0DBFA4FF0600C4FF4C8
:1004A800167E22460FA93046CDF83CC0CDF840E074
:1004B8001194129413941494159404F0DBF9524691
:1004C8000FA9304604F0D6F908220FA9304604F0E7
:1004D800D1F94FF4886E0FA90C2230460F95CDF84C
:1004E80040E004F0C7F94FF400531B93019B1893A5
:1004F8004FF4006E4FF08072072316A94FF4806501
:100508003046CDF858E01F931D92179519941A9408
:100518001C941E94209404F0C1FA304601F098FD12
:10052800134B4FF4E13118460C2205F14025596070
:100538005A619C60DC601C619C61DC611C625C62CD
:100548001D6004F043FB01F06FFA3A46514613E090
:100558000010024000040048A40700200C080020F6
:10056800000800480000211000740040002C0140E1
:100578004C080020F8070020182003F0B5F81820D0
:1005880003F0E8F822464146122003F0ADF81220A5
:1005980003F0E0F83A464946262003F0A5F826205D
:1005A80003F0D8F828202246214603F09DF8282099
:1005B80003F0D0F8FEE700BF014B186804F016BD41
:1005C8009C090020014B186804F01ABD9C09002002
:1005D800014B186804F05CBD9C0900202DE9F04F20
:1005E8007C4B7D4DDFF858B27C4C2B608BB04FF0C4
:1005F8000008039018467A4B7A4A7B4E049183F898
:100608000080CBF80020266005F092FE05F01CF86B
:100618007648774CDFF82CA2764F774EDFF8289291
:1006280006F0A0FC754804F077FF754A754B7349CE
:1006380075481160236007F0A5F8714B724A196874
:10064800206806F0BFFB714806F0A6FE2B682168FB
:100658006E4A00936E486F4B07F0A6FB504604F0B5
:100668005BFF384604F058FF6B4A6C4BC2F800A099
:100678006B4A33601846176006F022FA694B3268F5
:10068800C3F81021684A694F13604846C3F80C71D3
:1006980004F0F2FE604B624ADFF8B0A131681B68D3
:1006A8001268DBF80000CAF8009006F087FF604B7C
:1006B800604A1846136006F08DFA574BC7F8008059
:1006C8001868C7F804804146C7F80C80C7F810803E
:1006D800C7F81680C7F81A80C7F81E8004F030FFE4
:1006E8004F4B4146186804F02BFF206806F082FB48
:1006F800286805F0E3F8DBF8000008B106F06AFFA7
:100708004FF0010987F824902068DFF8448106F04B
:1007180015FC0346C0F30F423B827A82206806F03C
:100728000DFC4549414B2268C8F800104FEA104EAD
:10073800A7F814E008462D4904F02AFC2068D8F8E8
:10074800007006F0E9FB00220146384604F02CFC54
:10075800334F2B49D4F800C0D8F80020039CD5F8B3
:1007680000802D48304D354B09683F680591006879
:100778000797DAF800E037682E68DBF80050226047
:100788001A4C06909C62059C1C60069C5C600022CA
:10079800079CDFF87CB01C481C499C60C3F810809B
:1007A800C3F824C0C3F82CE01F63DE635D64C3F89C
:1007B80014B098611962DA60DA615A639A631A644C
:1007C8009A64DA64049A1360054B83F800900BB0BE
:1007D800BDE8F08FC0020020D40800206009002086
:1007E80088070020F0000020000000208409002075
:1007F80098090020280100206409002080010020B9
:10080800D80800206005002040040020EC050020E6
:10081800B40300202C040020DC0800208C030020F6
:1008280094090020AC01002090090020E80800206D
:10083800740300208C09002068090020100900209A
:10084800CC0800205401002094050020D008002086
:10085800E00800202DE9F0439B4C237883B013B9BE
:1008680003B0BDE8F083012B04D001F0C3FC03B052
:10087800BDE8F083954E328892B2002A65D032885E
:10088800934F944D013A92B232803A8892B21AB19B
:100898003A88013A92B23A802A8892B21AB12A88E2
:1008A800013A92B22A80012BDFD18B4B8B4D18680D
:1008B80004F0F2FD0446286805F02AF8884B04F095
:1008C8000E040443186806F019F9A4B200F00E01EA
:1008D8002143CA4392B2834806F0D0FB814806F010
:1008E800E7FB0A2807D00B2802D1286804F0E6FFA6
:1008F80001F0C2F9B9E7286804F0E0FF7A4B7B4AB7
:10090800002410681C6021465C60DC601C61C3F830
:100918001640C3F81A40C3F81E4004F011FE744B89
:100928002146186804F00CFE724B186806F062FA4B
:10093800286804F0C3FF704B186808B106F04AFE37
:100948006E4B186804F068FDD2E702A96C4821F8DC
:10095800082D07F061F8694D0746286804F03EFE47
:10096800604806F0A5FB0338102840D8DFE810F0EF
:10097800F100FE00D000420176006E005F003F00EB
:100988003F003F003F003F003F0050004200220070
:1009980011005C4807F08EFA002840F051810246A9
:1009A800102150484A4F4B4D06F068FB012223782E
:1009B80032806AE7DFF83C814B4D5349D8F8000094
:1009C800012385F8243006F011FA504B186804F01A
:1009D80065FB01464B4807F025FA494807F0F4F84B
:1009E8000421404806F0C4FA002840F06B81384FD3
:1009F800384DDBE7394B0121186804F061FF002806
:100A0800F5D012213748324F324D06F0B1FACDE712
:100A18002F4F398889B20029EAD1304B2D4D1868FB
:100A280004F04EFF11212F4806F0A2FABEE7314B21
:100A380035491868264F274D06F0D8F9324806F090
:100A4800C1FC0021274806F093FAAFE7214D2B8817
:100A58009BB2002B00F015811D4FA7E7DFF87C80C3
:100A6800D8F8000005F0EEF81F4B204A0027106860
:100A78001F6039465F60DF601F61C3F81670C3F8F6
:100A88001A70C3F81E7004F05BFD194B39461868DC
:100A980004F056FD174B186806F0ACF9D8F80000BA
:100AA80004F00CFF144B186808B106F093FD286891
:100AB800084D074F04F0B0FC4FF44873082109486B
:100AC8002B8006F055FA71E7880700208C07002074
:100AD8008A0700208E070020D0080020D4080020B4
:100AE8006409002084090020E8080020DC080020B0
:100AF8009409002098090020CC08002090090020C3
:100B080040040020B4030020EC050020E008002089
:100B1800DFF83482814FD8F80000814906F066F981
:100B2800386808B106F0F0FD7E4D95F82430002BAA
:100B380000F0B78006217C487C4F7D4D06F018FAFE
:100B4800D8F8000006F006FA7A4B186804F064FA40
:100B58002CE7794B754F1868754D04F0FFFF142387
:100B6800102171483B8006F003FA1FE7734807F02D
:100B7800A1F9002840F08B80024610216A4806F04F
:100B88007DFA0DF102016E4806F080FCBDF90210F5
:100B9800634807F049F805460146694806F0FCFC39
:100BA800002D3FF424AF5E48DFF87891DFF8A48188
:100BB8005E4F06F0C5F80146D9F8040004F016FBAC
:100BC8000546D8F80000019506F004F82DB2B9F9E9
:100BD8001010D8F80000002206F020F82946D8F8AE
:100BE8000000534D002206F019F813214E4806F074
:100BF800BFF9DBE64F4B4B4D186804F00DFA95F83A
:100C0800243053B1002F7FF4F2AE3A4620214648F3
:100C1800464F474D06F032FAC8E6DFF82C81D8F87F
:100C2800000006F045F93D4BE8831B682882002B3D
:100C3800E8D0D8F800202969184606F0CFFCE1E78B
:100C480001A93F4806F022FC05463D4806F0B2FCE3
:100C580015B900283FF4CBAE3A4A324BD2F800809F
:100C6800B3F91090314F324D404604F06DFC09FB4A
:100C780000F1404604F064FC05212B4806F078F9A1
:100C880094E609212848294F06F072F98EE62E4B82
:100C9800186806F00DF9234BB3F9142018825A820C
:100CA8006FE7D8F8000006F003F93B68E88328826C
:100CB800002B3FF43FAF2969D8F80020184606F00A
:100CC8008DFC37E7214BDFF870901868002739460C
:100CD8002F606F60EF602F61C5F81670C5F81A7045
:100CE800C5F81E7004F02CFC194B3946186804F03E
:100CF80027FCD8F8000006F07DF8D9F8000004F0C9
:100D0800DDFD064B186808B106F064FCD9F8000050
:100D1800064F074D04F046FF48E600BFCC08002008
:100D280040040020E8080020840900208A070020E9
:100D38008E070020E0080020D4080020B40300201B
:100D4800EC050020D808002098090020DC080020C5
:100D5800940900208C090020A54B1B78012B00D09A
:100D680070472DE9F043A34C23889BB283B0BBB1F5
:100D78002388A14EA14D013B9BB2238033889BB2AF
:100D88004BB92B889BB21BB12B88013B9BB22B80A4
:100D980003B0BDE8F0833388013B9BB23380F0E7B2
:100DA80002A9974821F8083D06F036FE954D0646FB
:100DB800286804F013FC944806F07AF903381028E0
:100DC8003DD8DFE810F0C400D100A6003701730059
:100DD8006B005C003C003C003C003C003C003C00DC
:100DE8004D003F0021001100884807F063F80028F3
:100DF80040F043810246102183487F4E7F4D06F024
:100E08003DF901232380B9E7814E824D824930683C
:100E1800012385F8243005F0E9FF804B186804F0B9
:100E28003DF90146794806F0FDFF754806F0CCFE0D
:100E38000421754806F09CF8002840F05D816E4E4C
:100E48006E4DDEE7764B0121186804F039FD002865
:100E5800F5D012216C48684E684D06F089F8D0E745
:100E6800654E318889B20029EAD16D4B634D186807
:100E780004F026FD1121644806F07AF8C1E7644BB6
:100E8800654918685C4E5D4D05F0B0FF624806F094
:100E980099FA00215C4806F06BF8B2E7574D2B88A9
:100EA8009BB2002B00F00981534EAAE75C4F3868CB
:100EB80004F0C8FE574B5B4A002610681E60314696
:100EC8005E60DE601E61C3F81660C3F81A60C3F87E
:100ED8001E6004F035FB544B3146186804F030FBB3
:100EE8004B4B186805F086FF386804F0E7FC4F4B59
:100EF800186808B106F06EFB2868404D3E4E04F0B5
:100F08008BFA4FF4487308213F482B8006F030F8DD
:100F180077E73F4F454E3868394905F067FF306835
:100F280008B106F0F1FB3B4D95F82430002B00F09A
:100F3800D48006213448304E304D06F019F8386810
:100F480006F008F8354B186804F066F859E7344B92
:100F5800294E1868294D04F001FE142310212A484F
:100F6800338006F005F84CE7284806F0A3FF002870
:100F780040F0A98002461021234806F07FF80DF1C1
:100F88000201254806F082FABDF902101C4806F055
:100F98004BFE05460146204806F0FEFA002D3FF4B8
:100FA8004EAF1748DFF86C90DFF88480124E134D6F
:100FB80005F0C6FE0146D9F8040004F017F9074603
:100FC800D8F80000019705F005FE3FB2B9F91010F6
:100FD800D8F80000002205F021FE3946D8F80000B4
:100FE800002205F01BFE1321074805F0C1FF08E7A2
:100FF800880700208C0700208A0700208E07002021
:10100800400400209009002084090020B403002037
:1010180098090020E8080020EC050020E0080020DE
:10102800D4080020DC08002094090020CC08002007
:101038008C090020454B464D186803F0EDFF95F8E4
:10104800243053B1002E7FF4FAAE324620214148B5
:10105800414E424D06F012F8D3E6414F386805F08C
:1010680027FF404BE8831B682882002BEAD03A68A8
:101078002969184606F0B2FAE4E701A93A4806F0E9
:1010880005FA0546384806F095FA15B900283FF4E0
:10109800D6AE364A2E4B1768B3F910802E4E2F4D18
:1010A800384604F051FA08FB00F1384604F048FAD3
:1010B8000521284805F05CFFA3E609212548264EAE
:1010C80005F056FF9DE6264B186805F0F1FE204B0B
:1010D800B3F9142018825A8251E7386805F0E8FEFF
:1010E8003368E8832882002B3FF423AF29693A68E4
:1010F800184606F073FA1CE71D4BDFF87C80186869
:10110800002739462F606F60EF602F61C5F81670B1
:10111800C5F81A70C5F81E7004F012FA154B394656
:10112800186804F00DFA306805F064FED8F800007D
:1011380004F0C4FB0B4B186808B106F04BFAD8F85A
:101148000000054E054D04F02DFD5AE6E00800208C
:10115800E8080020840900208A0700208E07002064
:1011680098090020CC080020EC050020D8080020B1
:10117800DC08002094090020D40800202DE9F04163
:10118800564B574C1B78D4F81A0088B0132B05908F
:1011980000F09780534B544F1868544E05F028FEC2
:1011A80005F0CEFD69460546386804F07FFA0098D8
:1011B80003F0F6FF2946019004F018F84C4BB4F9F7
:1011C8001010029000B2091A186804F0C5F9494BCA
:1011D800B4F91210BDF90A208046891A186804F07B
:1011E800BBF90346306848B1ADF81080ADF812304D
:1011F800049906F049FA0FFA80F803143E4AADF84C
:101208001230ADF81080106823830499A4F8168072
:1012180003F010FE294604F05DF8034601463868DD
:10122800039304F045FA074600982060019860602F
:1012380033680298E06003982584C4F81A0013B153
:10124800184606F049FA012F32D02C4806F06AFEFB
:101258002B4A2C4B044610680690186803F0E2FDF0
:1012680005A9ADF81C00284806F0EEFA264806F055
:101278007BFCCCB1194805F01BFF031FDBB2012B27
:1012880005D9132803D0002008B0BDE8F0811E4816
:1012980005F056FD08A921F8140D1C4806F0A8F819
:1012A800002008B0BDE8F081174806F061FDE1E7CD
:1012B80039460022094805F0E1FE002008B0BDE8E3
:1012C800F081134D286805F035FD00287FF462AFE2
:1012D800286805F087FC20825CE700BF84090020AD
:1012E800E808002098090020D4080020CC08002035
:1012F800DC0800209409002060090020B4030020C5
:10130800EC0800206409002040040020EC050020BF
:101318008C09002008B5054B186804F093FC0022DE
:1013280080210348BDE8084005F0A8BED408002085
:1013380084090020F0B54FF09042334BD3614FF44D
:101348008071D1618DB0D361D3690B934FF4007173
:101358004FF481330B98D361D161D361D3690A9378
:101368004FF484304FF400650A9BD061D561D06199
:10137800D36909934FF482314FF48064099BD1619A
:10138800D461D161214BD66908964FF480574FF448
:101398008836DDF820E0DE61DF61DE61DE69079610
:1013A800079ED861DD61D861D86906900698D96131
:1013B800DC61D961D9690591022415490598D16183
:1013C800D461D161D069049001254FF00110049EC9
:1013D800D061D561D061D2690392039AD861DD6189
:1013E800D861DA690292029AD961DC61D961DA6955
:1013F80001920199074ADA610421D961DA61DB694E
:101408000093009B0DB0F0BD0001010000080048EA
:10141800020001000400010010B5C36B0446006B14
:101428009847802384F8C830206BA36BBDE8104030
:10143800184700BF2DE9F04116464A098CB00C4602
:101448009846054611D10C2C00F21F82DFE814F0F3
:10145800FD012B00B3003F011D021D024A0174016A
:101468008701B801D901EF010002571E3A46002151
:1014780000F01AFF60B90CAC0B2304F8223D224699
:10148800286B6C6B0123FF21A0470CB0BDE8F081ED
:10149800D5F8C40004F01F040028D4D03A4600212F
:1014A80000F002FFCFE7317805238DF80E307E2952
:1014B80000F26D82DFE811F05E026B026B025902E6
:1014C8006B02510251025102510251025102510262
:1014D8005102510251025102430243026B026B0254
:1014E800510251025102510251026B026B026B020E
:1014F8003C0235026B026B026B026B026B026B02E1
:101508006B026B026B026B026B026B026B026B026B
:101518006B026B026B026B026B026B026B026B025B
:101528006B026B026B026B026B026B026B026B024B
:101538006B026B026B026B026B0251026B026B0255
:101548006B026B024302430243026B026B026B02A3
:101558006B026B026B0251026B026B026B0251024F
:101568005102510251025102510251026B024302CF
:101578006B026B026B026B026B0251026B026B0215
:10158800510251026B026B026B026B026B026B021F
:101598006B026B026B026B026B026B026B026B02DB
:1015A8005902430243024302430243026B026B02A5
:1015B8006B0243024302317803238DF80E308229EF
:1015C80000F24381DFE811F0A0019301A001A0011E
:1015D80093018601860186018601860186018601BE
:1015E80086018601860186018601860186018601BB
:1015F80086018601860186018601860186018601AB
:10160800760166019301860186018601A0014101E8
:1016180041014101410141014101410141014101B2
:1016280041014101410141014101410141014101A2
:101638004101410141014101410141014101410192
:10164800410141014101410141018601410141013D
:1016580041014101930193019301860186018601AD
:101668008601A00193018601860186018601860113
:10167800860186018601860186018601A001930103
:1016880041018601860186018601860141014101E9
:1016980086018601A001A0019301930193019301A2
:1016A8009301A0018601860193014101860186010B
:1016B800A001930193019301930193019301930175
:1016C8009301930193019301A0014101A001072314
:1016D80031788DF80E30284601F034FA002800F0F1
:1016E800B4809BE004AC00212046202206F074FC64
:1016F800D5F8C0600DF11200711E002305E001331A
:101708001D2B00F8012F00F0478111F8012F092A3D
:10171800F5D1591DDA1D0933715C8DF81010B25CD2
:101728008DF81120F35C8DF812302246286B6C6B13
:101738002023F021A04771E0777833787079B47866
:101748003279F17803EB072303EB044302EB002221
:1017580003EB016192B2284601F032FABEE70DF1BF
:101768000E043178009403AB0DF10A02284601F00B
:1017780039FABDF90C30BDF80A00BDF90E108DF824
:10178800141003EB43035B0000221E1263F30702ED
:1017980066F30F221E1466F317421B1663F31F62CB
:1017A8000912030A04928DF815108DF816008DF8A9
:1017B80017306E6B286B082304AAF021B0475EE649
:1017C800B4787378F078317996F806E0784A377A01
:1017D80003EB042303EB00437079F47903EB016313
:1017E80000EB0E20317882FB0362A2EBE37300B2B8
:1017F80004EB072200901BB292B2284601F010FABF
:101808006CE7F078B2787378317802EB002201EB5C
:10181800032112B209B2284601F01CFA00231A4625
:101828006C6B286BF021A0470CB0BDE8F081614CCF
:1018380004960C23214604A88DF814808DF80E30E8
:1018480001F01AFA002840F0AB800DF10E0416E6FC
:10185800D5F8C02004AC013A23460CAE04E003F8E6
:10186800011B9E423FF461AF12F8011F181BC0B262
:101878000029F4D11F283FF658AFC0F11F02D2B299
:101888000132204406F0A8FB4FE70CAC012304F812
:10189800223DF4E5D5F8C4000028D6D0012101F096
:1018A800F9F90CAA6C6B02F8200D0123F021286BC2
:1018B800A047B3E7D5F8C4000028C6D0002101F03E
:1018C800E9F90CAA6C6B02F8200D0123286BF021B2
:1018D800A047DAE5284600F081FE04900130B4D034
:1018E8006C6B286B022304AAF021A047CDE528469B
:1018F80000F074FE04900130A7D06C6B286B0423B1
:1019080004AAF021A047C0E5284600F067FE04902D
:1019180001309AD06C6B286B012304AAF021A047F0
:10192800B3E57278D5F8C400012101F0AFF975E785
:101938007278D5F8C400002101F0A8F96EE7B478F0
:101948007378F078327903EB042303EB004303EB5D
:101958000262284600F0A8FCC0E6B27873782846F0
:1019680003EB022200F0A0FCB8E67278284600F0EB
:101978009BFCB3E67478D5F8C4002246002100F039
:1019880093FC22460021284600F08EFCA6E60CAC0B
:10199800022304F8223D72E5262324222221BBE6F5
:1019A8006E6B286B23792268F021B0476DE500BF84
:1019B800ABAAAA2A9007002010B5C36B0446006B97
:1019C8009847802384F8C830206BA36BBDE810408B
:1019D800184700BFF0B583B004461E46099B016353
:1019E8000E4DC4F8C4300A9BC4F8C03008461746E8
:1019F800214600950A4B089D0A4A03F0ABFA206B72
:101A08006763A663E563A847802384F8C830206B22
:101A1800A36B03B0BDE8F040184700BFC119000828
:101A28003D1400082114000830B583B002F0CAFB49
:101A38000B4B0C4D0C4CA3FB0030C00901F096FE7B
:101A480029462046FEF7CAFDFFF774FC074B0093B2
:101A580022462B460121064800F05CFB03B030BD4E
:101A6800D34D6210A00900209C0900205C8000086A
:101A780058070020F0B55F4A017913681D790446BC
:101A8800002B14BFFF2000208D4200F08A8053688D
:101A9800002B00F0A2801D798D4200F089809368A8
:101AA800002B00F09F801D798D4200F08880D3685C
:101AB800002B00F09B801D798D4200F08780032861
:101AC8005FD823689D684C4E42F82040002246F8B3
:101AD8003020EA071ED45A68042522F004025A600E
:101AE8001D605A68202522F020025A601D609A68FD
:101AF80022F0404222F03F0242F000429A609A6887
:101B0800002AFCDB9A6822F0004222F03F0242F0F1
:101B180001029A601A6B092922F00F021A6332D85F
:101B280001EB41068A06012542EA065205FA01F14F
:101B38000A434FF0007797FAA7F7B7FA87F102F050
:101B48000077CF40143302F0F87253F827504FF063
:101B5800F87191FAA1F6B6FA86F691FAA1F14FF06A
:101B6800070EA468B1FA81F122FA06F60EFA06F613
:101B7800CA4004FA02F125EA06020A4343F827207C
:101B8800F0BDFF20F0BD01228A4042F0007203251B
:101B98006FF01D0642EA816215FB016142EA0152BB
:101BA800C7E71D682368AB427FF471AF002089E75F
:101BB8001D6823689D427FF472AF012082E71D688B
:101BC80023689D427FF473AF02207BE71D6823687A
:101BD8009D427FF474AF032074E7042894BF00206B
:101BE800012058E7052828BF02205CE7052828BF00
:101BF800032060E7CC090020A809002010B41D4B81
:101C080053F8203019791A68092925D801EB4104BD
:101C18008B06012043EA045300FA01F10B434FF409
:101C2800407191FAA1F1116B1B0D03F4F86321F4D3
:101C3800F8610B431363136C936823F0004323F09C
:101C48003F0343F00403936013685B07FCD5106CF3
:101C58005DF8044B80B2704701238B4043F000735A
:101C680003206FF01D0443EA816310FB014143EA3E
:101C78000153D4E7CC09002070B4274C2378012BFA
:101C880001D070BC70472549254A087852F82020B1
:101C980011791268092931D801EB41068D068B406C
:101CA80045EA06510B434FF4407191FAA1F1116BCB
:101CB8001B0D03F4F86321F4F8610B431363136CF1
:101CC800936823F0004323F03F0343F00403936039
:101CD80013685B07FCD5134B116C134E53F8305047
:101CE80089B2022231802270002DCAD003EBC003D2
:101CF80000265A6826702B4670BC18478B4043F064
:101D0800007303256FF01D0643EA816315FB01612B
:101D180043EA0153C7E700BFC8090020A40900200F
:101D2800CC090020A8090020DC09002008B54FF0E4
:101D3800A04340221A60FFF721FABDE8084000F0EE
:101D48007BBA00BF0448D0F8B030DB686FF00102FE
:101D58001A6104F02FBD00BFC002002010B50F4C5F
:101D6800D4F8B030DB681A6911060CD41A69D205A8
:101D780005D56FF480721A61084804F01DFDBDE8AE
:101D88001040FEF7E9BF6FF080021A61204604F0A8
:101D980031FDD4F8B030DB68E8E700BFC0020020AE
:101DA80010B5194CD4F82031DA69910617D4DA69DC
:101DB80012060ED4DB691B0700D410BD124805F0CB
:101DC8002BFAD4F8203108221A62BDE8104000F03E
:101DD80043BA0D4805F0EEF9D4F82031EAE7998CBA
:101DE8002046C9B205F07AF90388012B04D0022BEA
:101DF80007D0D4F82031DAE700F034FAD4F82031EB
:101E0800D5E700F029FAF4E71C06002070B5FFF7C3
:101E180081FA1A4C08262546D4F8203105E0DA69FB
:101E2800110612D4DA69920617D4DA691007F6D5C2
:101E3800284605F0F1F9D4F820311E6200F00CFABA
:101E4800D4F82031DA691106ECD5284605F0B2F944
:101E5800D4F82031DA699206E7D5998C2846C9B2B8
:101E680005F03CF90388012B04D0022BD4D100F0F3
:101E7800F3F9D1E700F0F6F9CEE700BF1C06002021
:101E880010B50A4C2378022B06D00133DBB223703D
:101E9800BDE81040FEF7DEBC00F070FF01F082FCE8
:101EA80001232370BDE81040FEF7D4BC5C07002076
:101EB800024B4FF400525A6100F0DAB900040140B5
:101EC8000D4B00B59A6942F001029A619A6983B094
:101ED80002F001020092009ADA6942F08052DA6157
:101EE800DB6903F0805301930420019B01F0EAFBB6
:101EF80003B05DF804FB00BF0010024030B5036872
:101F080089B00024B3F1A04F049403940594069477
:101F1800079401D009B030BD03F1704303F50433D1
:101F280003255A69154842F080525A615A6902F0ED
:101F380080520092009A5A6942F400225A615A6902
:101F480002F400220192019A5A6942F400325A615D
:101F58005B69049503F40033029303A90723029AEB
:101F6800039301F05DFC03A94FF09040039504959D
:101F7800059401F055FC09B030BD00BF00080048C9
:101F880010B50168164A88B0002391420493039360
:101F980005930693079301D008B010BD03F1804361
:101FA80003F5043303A9DA6942F00052DA61DA6909
:101FB80002F000520192019A5A6942F400325A61C1
:101FC8005B6903F400330293102203234FF090401F
:101FD800029C0392049301F023FC08B010BD00BFDB
:101FE8000074004070B50168184A88B00023914217
:101FF8000493039305930693079301D008B070BD2B
:1020080003F1804303F5043303A99A6942F400629B
:102018009A619A6902F400620192019A5A6942F43B
:1020280000325A615B6903F40033029301220C23E6
:102038004FF4006502244FF09040029E03950494EB
:102048000592079301F0ECFB08B070BD002C01402D
:1020580070B50168144A86B0002391420293019337
:1020680003930493059301D006B070BD03F1804338
:1020780003F5043301A95A6942F400325A615B69D5
:1020880003F400330093062202234FF4E06503248F
:102098004FF09040009E019502930393049405929B
:1020A80001F0BEFB06B070BD002C014030B50168E0
:1020B800174A89B00023914204930393059306932A
:1020C800079301D009B030BD03F1804303F5043311
:1020D80003A9DA6942F40032DA61DA6902F40032FB
:1020E8000192019A5A6942F400325A615B6903F419
:1020F80000330293022207230C244FF09040029DE4
:1021080003940492079301F08BFB09B030BD00BF24
:10211800004400402DE9F04F87B02D4D109C0594E8
:102128002C4682460F46904699460FCCDFF8B8C039
:10213800284EDFF8B8B0C6F800C0E646AEE80F0093
:102148000FCCAEE80F0094E80F00CDF800A08EE8A1
:102158000F004B4660464246394600F095F8306815
:1021680000F08CFD30682322002100F08FFD3068DC
:102178002422012100F08AFDAC46BCE80F00DFF8FC
:1021880070E075460FC5BCE80F000FC594E80F0056
:10219800114C85E80F005846C4F800E004F09CFF95
:1021A800326805990D4B20680291019259460093B7
:1021B8000B4A0C4BFFF70EFC2068CDF840A04B46AD
:1021C8004246394607B0BDE8F04F00F05DB800BFA1
:1021D800BC0500209C070020A00700209973000878
:1021E8007D72000859720008B40000201C06002007
:1021F800E00900200D4A13889BB21BB11388013BEC
:102208009BB213800A4A13889BB2012B03D9138807
:10221800013B9BB21380074A13889BB2012B03D959
:102228001388013B9BB21380704700BF9A070020B8
:10223800980700205E07002038B5064C0546206840
:1022480000F02EF8A84200D038BD2068BDE838401C
:1022580000F018BD9C070020014B00221A8070472F
:1022680098070020014B4F221A80704798070020DA
:1022780008B5FEF7ADF918B1BDE80840FEF7A2B9F8
:10228800BDE80840FEF798B930B4029C8462002586
:1022980080F82C5001770262436230BC704700BF5F
:1022A80090F82C00704700BF70B5144690F82C3099
:1022B800456A026A55F8235052F8236084B05B29B6
:1022C80000F26181DFE811F01F015F015F01170172
:1022D8005F0111010B010501F900F300ED0059013F
:1022E8004D012D012701E700CC0033015F015F019B
:1022F800B10096005F015F015F015F015F015F014F
:102308005F015F015F015F015F015F015F015F01C5
:102318005F015F015F015F015F015F015F015F01B5
:102328005F015F015F015F015F015F015F015F01A5
:102338005F015F015F015F015F015F015F015F0195
:102348005F015F015F015F015F0190005F015F0155
:102358005F015F018300760069005F015F015F0133
:102368005F015F015F015F015F015F015F015F0165
:102378005F015F015F015F015F015F015F015C0059
:10238800954981FB0431A1EBE471304609B2002282
:1023980002F00AFE012004B070BD01AE3046696C3F
:1023A80005F0CEF90394686C96E80E0005F0BAF9CA
:1023B8000120F0E701AE3046696C05F0C1F90194DF
:1023C800686C96E80E0005F0ADF90120E3E701AE70
:1023D8003046696C05F0B4F90294686C96E80E0012
:1023E80005F0A0F90120D6E7304621B202F0C8FE78
:1023F8000120D0E7826A52F823301A0F092AC3F362
:10240800036300F0CC80092B7AD1EE69002E77D0D7
:1024180001AA0DF10201304605F088FC21B23046D0
:10242800BDF9042005F090FC6AE0826A52F8233076
:102438001A0F092AC3F3036300F0B680092B5FD192
:10244800EE69002E5CD001AA0DF10201304605F0BC
:102458006DFC22B23046BDF9021005F075FC4FE064
:10246800826A52F823301A0F092AC3F3036300F073
:10247800A080092B44D1EE69002E41D001AA0DF1AC
:102488000201304605F046FC21B23046BDF9042071
:1024980005F048FC34E0A86821B203F057F80120A1
:1024A80079E7686821B203F041F8012073E76868AA
:1024B80021B203F039F801206DE7304602F040FE02
:1024C8000190ADF804403046019902F081FD0120E9
:1024D80061E7286821B203F039F801205BE7286832
:1024E80021B203F023F8012055E7286821B203F050
:1024F8001BF801204FE714F0FF0446D0012C61D0EF
:10250800012004B070BD037FE4B2A3423BD980F838
:102518002C4001203FE7A86821B203F007F801200A
:1025280039E7A86821B202F0FFFF012033E7826A89
:1025380052F823301A0F092AC3F303633ED0092B3C
:10254800DED1EE69002EDBD001AA0DF10201304682
:1025580005F0E0FB22B23046BDF9021005F0E2FBBF
:10256800CEE7304602F0ECFD0190ADF8064030466B
:10257800019902F02DFD01200DE7686821B202F0F3
:10258800E5FF012007E7002005E7304602F0F4FDEB
:1025980022460146304602F00FFD0120FBE6092BDA
:1025A800AE697FF433AF30E7092BAE697FF449AFEA
:1025B80046E7092BAE697FF45FAF5CE7092BAE698C
:1025C800C0D1BEE7304602F09FFD002201463046EA
:1025D80002F0EAFC2046DEE6ABAAAA2A30B590F85B
:1025E8002C30456A046A1AB29FB055F8225054F844
:1025F8002240812900F25F82DFE811F090004D024D
:102608004002C300BC00B800B400B0008800AA00B3
:10261800A600A20082009C009800940046013301A5
:102628005D025D02FD00EA005D025D025D02E200FE
:10263800DE00E600D700D000C9001F011A015D02C4
:102648001601110181013B0248021F011A0188008D
:102658008200290124012E01FD015D025D02EC01C9
:102668006E015A01DA01C601B2015D025D025D0226
:102678005D025D025D02AC018D00A5019E01820034
:102688008A012B025D025D0225021F021902140253
:102698000F020A0202025D025D025D025D025D0236
:1026A8005D025D025D025D025D025D025D025D022A
:1026B8005D0251025D025D025D025D025D025D0226
:1026C8005D025D025D025D025D025D025D025D020A
:1026D8005D025D025D025D024402860192005D02B8
:1026E800C700A0005D025D025D025D025D025D0241
:1026F8005D025D025D025D025D025D025D02AE008B
:10270800204602F01DFD00141FB030BD204602F027
:1027180017FD00B2F8E70369002B43D11846F3E729
:10272800BA48F1E7A86802F013FFEDE7A86802F0DD
:1027380003FFE9E7A86802F0FBFEE5E70220E3E70C
:10274800686802F005FFDFE7686802F0F5FEDBE77E
:10275800686802F0EDFED7E70020D5E7286802F0A8
:10276800F7FED1E7286802F0E7FECDE7286802F017
:10277800DFFEC9E7204602F0C7FC00EB400040003E
:10278800C2E7204602F088FCBEE70120BCE72046ED
:1027980002F0B2FC00EB40004000B5E78368002B74
:1027A80000F08C8101219847AEE78368002B00F088
:1027B800858100219847A7E7E86A02F097FEA3E71A
:1027C800286B02F031FB9FE7E86B02F051FE9BE7B4
:1027D800836A53F822301A0F092AC3F3036300F0FF
:1027E8009281092B61D1E86900285ED01BAA18A93B
:1027F80005F09CFA59E0836A53F822301A0F092A27
:10280800C3F3036300F06181092B05D1E86918B1AE
:102818001BAA18A905F08AFABDF96C0074E72046CE
:1028280002F076FC00B26FE7686905F0ADFB6BE774
:10283800204602F07DFC001466E7204602F078FC92
:1028480000B261E7204602F083FC00145CE72046F2
:1028580002F07EFC00B257E7204602F083FC00B28B
:1028680052E7836A53F822301A0F092AC3F3036325
:1028780000F02681092BCFD1E8690028CCD01BAA0B
:1028880018A905F047FAC7E7836A53F822301A0FE8
:10289800092AC3F3036300F03181092B05D1E869E4
:1028A80018B11BAA18A905F035FABDF960002BE785
:1028B800836A53F822301A0F092AC3F3036300F01E
:1028C8001381092B40F0F780E869002800F0F380B5
:1028D80005F00CFA00B217E7836A53F822301A0F92
:1028E800092AC3F3036300F01D81092B40F0E3803C
:1028F800E869002800F0DF8004F05AFA04E720466F
:1029080002F006FC0014FFE6286802F01DFEFBE654
:10291800836A53F822301A0F092AC3F3036300F0BD
:10292800D980092B40F0C780E869002800F0C380EF
:1029380005F022FA0014E7E6686A04F0F3FA00EBFF
:1029480040004000E0E6686A04F0EAFA00EB400064
:102958004000D9E60369002B7FF42BAF1846D3E675
:10296800836A53F822301A0F092AC3F3036300F06D
:10297800B680092B40F09F80E869002800F09B8012
:1029880005F0A8F90014BFE6836A53F822301A0F3D
:10299800092AC3F3036300F0C080092B40F08B8041
:1029A800E869002800F0878005F094F900B2ABE6EA
:1029B800836A53F822301A0F092AC3F3036300F01D
:1029C8009880092B77D1E869002874D005F08EF932
:1029D800001499E6836A53F822301A0F092AC3F3C0
:1029E800036300F09580092B65D1E869002862D05F
:1029F80004F0A6F988E6204602F0B4FB001483E64A
:102A0800686C04F0B3FE00147EE600BF7A84A63436
:102A1800686C04F0ABFE00B276E6686C04F09AFECF
:102A2800001471E6686C04F095FE00B26CE61BA811
:102A3800696C04F085FE1D9866E618A8696C04F0B8
:102A48007FFE189860E615A8696C04F079FE169860
:102A58005AE6836A53F822301A0F092AC3F303632C
:102A680065D0092B27D1E86928B305F089F9001446
:102A78004AE6204602F054FB00B245E6A86A04F094
:102A880017FB41E6286802F05DFD3DE6204602F0AE
:102A980047FB001438E6A86A04F018FB34E6204621
:102AA80002F0FAFA0128204645D002F02DFB00EB8F
:102AB8004000400028E64FF0FF3025E6832023E65B
:102AC800092BA8697FF4D9AED6E6092BA8697FF44B
:102AD8009EAE9BE6092BA8697FF427AF24E7092B54
:102AE800A8697FF44AAF47E7092BA8697FF4EDAEE0
:102AF800EAE6092BA8697FF467AF64E7092BA869A0
:102B08007FF4CEAECBE6092BA8697FF46DAE6AE6FA
:102B1800092BA8697FF46AAF67E7092BA8697FF4D6
:102B280040AF3DE7092BA8697FF4E3AEE0E6092B47
:102B3800A86999D197E702F0D3FA00EB400040006A
:102B4800E2E500BF10B5036A90F82C20013953F86C
:102B580022400D292CD8DFE801F01712070C0C0EC3
:102B68001C26212B2B2B2B12204602F091FA06282B
:102B780020D0012010BD204602F08AFA20B120465C
:102B880002F03EFA012010BD204602F02FFA012083
:102B980010BD204602F038FA012010BD204602F090
:102BA800F3FA012010BD204602F032FA012010BDD0
:102BB800002010BD204602F09BFA012010BD00BF86
:102BC80010B5074B90F82C40006A83FB01E3A3EB98
:102BD800E17150F8240009B202F0E6F9012010BDB5
:102BE800ABAAAA2AF8B590F82C40406A50F82400FD
:102BF800446994B120461E4617460D4605F0AEF9C5
:102C080029463880204605F0AFF92946308020460D
:102C180005F0B2F9069B012418802046F8BD00BFD4
:102C2800F8B51F4690F82C40436ABDF9186053F870
:102C380024305C690D46204605F07EF93A4629465F
:102C4800204605F07FF920463246294605F080F9EE
:102C58000120F8BD00B583B0036AADF8041090F800
:102C68002C10ADF8062053F82100019902F0B0F9B4
:102C780003B05DF804FB00BF00207047436903B14F
:102C880018477047836903B118477047436803B111
:102C980018477047836803B118478320704700BFFF
:102CA8001749184B184A194810B4D1F8884044F409
:102CB8007004C1F888401C6844F001041C605C681A
:102CC80022405A601A6822F0847222F480321A6014
:102CD8001A6822F480221A605A6822F4FE025A60A6
:102CE800DA6A22F00F02DA621A6B002410404FF001
:102CF800006218639C608A605DF8044B704700BFEF
:102D080000ED00E0001002400CC07FF8CCFC00FF92
:102D180038B50E4A0E4B12781B6805464FF47A7088
:102D2800B0FBF2F0B3FBF0F000F020FD08B90F2D76
:102D380001D9012038BD0446024629464FF0FF302C
:102D480000F0D2FC034B20461D6038BD640700200C
:102D58006007002068070020074A08B5136843F099
:102D680010031360032000F0ADFC0420FFF7D0FF30
:102D7800FFF7A6F8002008BD00200240034A044BD4
:102D880011681B780B441360704700BFAC0A002021
:102D980064070020014B1868704700BFAC0A002088
:102DA800F0B583B000230193002800F08D80436CB8
:102DB80013F01003044616D1456C002D77D0026835
:102DC8009168C90067D591688F0064D4616CCE069C
:102DD80000D463B1636C23F0120343F010030120A5
:102DE800636403B0F0BD436CDB06F3D402689068FB
:102DF80010F00400EED1616C21F4817141F0020100
:102E08006164936803F00303012B00F09D806E4911
:102E180065688B6823F440332B438B60A76BE168AC
:102E2800A368E669656A012F43EA010318BF4FF4F6
:102E3800805043EA4633012D43EA00037CD0E16A1F
:102E4800012902D0206B01430B43916811F00C0F4C
:102E58000BD1D068616BA56920F48040490020F04F
:102E6800020041EA8531D0600B43D5685749206993
:102E780029400B430128D36056D0136B23F00F036E
:102E880013630020A064636C23F0030343F0010381
:102E9800636403B0F0BD636C23F0120343F01003C6
:102EA8006364A36C43F00103A364636C92E78564D5
:102EB8000565C56480F84050FFF720F822689368DC
:102EC800DE0004D500237BE7012003B0F0BD936842
:102ED80003F00303012B47D0636CD806F2D4616C6E
:102EE8003B4B3C481B6821F4885121F0020141F01A
:102EF80002016164916821F040519160A0FB0313C5
:102F08009B0C916803EB83035B0041F08051916057
:102F18000193019B002B3FF453AF019B013B0193AD
:102F2800019B002BF9D14BE7116B236A21F00F01AC
:102F3800013B0B431363A4E75EB9A16A013943EA75
:102F4800414343F480337AE71368DD077FF55FAFC9
:102F580064E7616C21F0220141F020016164A16CF9
:102F680041F00101A1646AE71368DD07B4D59368ED
:102F780003F00D03012B0AD0636C43F01003636464
:102F8800A36C43F00103A364636C012318E79368FF
:102F9800032143F0020393601160FFF7FBFE05462F
:102FA80004E0FFF7F7FE401B022809D8226893685F
:102FB80013F00103F5D1616CC9063FF501AF8EE747
:102FC800636C2268D9E700BF0003005007C0F0FF18
:102FD8006007002083DE1B43F0B5034683B093F8F7
:102FE80040200020012A019047D01A68CC689568D3
:102FF80001206D0783F8400008D55A6C42F0200282
:103008005A64002283F8402003B0F0BD48680428C1
:1030180036D9092870D800EB400040001E38566B9E
:103028000D681F27874026EA070605FA00F0304397
:103038005063906810F00C0F33D1092D4ED905EB71
:1030480045071E3F90698E684FF0070E0EFA07FE7F
:1030580020EA0E00BE4030439061D0680E694F6987
:10306800C0F3C1004000013E07FA00F0032E00F251
:10307800F280DFE806F07D73695F022003B0F0BDDF
:1030880000EB4000166B0D6840001F27874026EABA
:10309800070605FA00F030431063906810F00C0F33
:1030A800CBD0906800F00300012813D0012C00F069
:1030B800A480D2F8B0100120A84021EA0001C2F88B
:1030C800B010102D72D0112D00F0AE80122D59D0F5
:1030D800002096E71068C007E8D5F9E705EB450E2C
:1030E80050698E68072707FA0EF720EA070006FAE4
:1030F8000EF630435061B0E70E2800EB40004FEA6F
:1031080040000BD83C38966B0D681F27874026EA8D
:10311800070605FA00F0304390638AE75A38D66B01
:103128000D681F27874026EA070605FA00F0304396
:10313800D0637EE7D76E6A4E3E4046F00046304385
:1031480040EA8560D066ACE7976E654E3E4046F033
:103158000046304340EA85609066A2E7576E604EAD
:103168003E4046F00046304340EA8560506698E7A6
:10317800176E5B4E3E4046F00046304340EA85609D
:1031880010668EE7574989684D02A1D4916801F00D
:103198000301012940F09C801268D00740F1988013
:1031A8005A6C42F020025A6401202AE74D49896886
:1031B8000F028DD4916801F00301012900F083808A
:1031C800B2F1A04F84D14749474C8A68474842F436
:1031D80000028A602268A0FB0212920C02EB8202B3
:1031E80052000192019A002A3FF472AF019A013A03
:1031F8000192019A002AF9D16AE7D2F8B000AC40EE
:103208000443092DC2F8B04040D905EB45008E684B
:103218009469A0F11B0107278F4006FA01F024EA00
:103228000701014391614CE72E498968CE013FF5BA
:103238004FAF916801F00301012902D11168C90754
:10324800AED4B2F1A04F7FF443AF26498A6842F06A
:1032580080728A603CE7166EA80606F0F846864239
:103268002CD0566E06F0F846B04222D0966E06F084
:10327800F846B04218D0D66E06F0F846B0427FF451
:1032880010AFD06E20F00040D0660AE7681C8E6848
:10329800546900EB400107278F4006FA01F024EA41
:1032A8000701014351610EE7966E26F000469666C7
:1032B800E1E7566E26F000465666D7E7166E26F00A
:1032C80000461666CDE71168CC073FF569AF77E78A
:1032D80004498A6842F480028A60002091E600BFAF
:1032E80000F0FF83000300506007002083DE1B43CB
:1032F800F0B5024683B092F840300020012B0190CF
:1033080000F0A0801369012082F84000002B4CD106
:103318004B68012B00F03F81506C136840F020008F
:10332800506401209C6825070DD40C6A002C40F0DD
:103338009B80CC694E6ADD68240544EA465425F42E
:1033480040152C43DC609C6814F00C0F5AD18C6A31
:103358000D6A012CDC6824F0007400F04781012D0F
:10336800DC6000F00D810C68092C6ED804EB440E6B
:103378005D698E68072707FA0EF725EA070506FA3A
:103388000EF635435D61DD680E694F69C5F3C10509
:103398006D00013E07FA05F5032E00F23E81DFE8D5
:1033A80016F0CC00C0002600B4008C698442AFD06F
:1033B800106D002869D18B6A1465012BD06400F068
:1033C8006681C86A013C034323434D680E6814654F
:1033D80005EB4505680002301F24844023EA0403F6
:1033E80006FA00F00343D364136800209AE7D3F881
:1033F80068E0AF4EA70647F000470EEA06063743D7
:103408003D439D669C6804F00304012C00F0BE80D7
:10341800CC68012C00F0D0800D68D3F8B0100124DE
:10342800AC4021EA0401C3F8B010102D47D0112D8B
:1034380000F08F80122D00F0DD80002382F84030EC
:1034480003B0F0BD022003B0F0BD04EB44071E3FFB
:103458009D698E684FF0070E0EFA07FE25EA0E05E5
:10346800BE4035439D618EE7DC684E6ACD6924F421
:10347800401444EA4654012DDC607FF464AF546C78
:1034880044F02004284654645DE74B680E68D56C08
:1034980003EB43035B0002331F249C4025EA040529
:1034A80006FA03F301381D43D564106500289BD143
:1034B8001368804CDE6C26403543DD6432E77E4974
:1034C80089680F02B9D4996801F00301012900F055
:1034D800E480B3F1A04FB0D17749784D8B68784C30
:1034E80043F400038B602B68A4FB03139B0C03EBD2
:1034F80083035B000193019B002B9ED0019B013B42
:103508000193019B002BF9D197E7D3F86CE0684E43
:10351800A70647F000470EEA060637433D43DD6637
:1035280070E7D3F864E0624EA70647F000470EEA5A
:10353800060637433D435D6664E7D3F860E05C4EBA
:10354800A70647F000470EEA060637433D431D66C7
:1035580058E759498968CE013FF56FAF996801F07E
:103568000301012902D11968CC0750D4B3F1A04F47
:103578007FF463AF50498B6843F080738B605CE7DE
:10358800546C44F0200428465464ECE61C68E407B4
:103598003FF553AF3CE78B6A012B7BD0C86A0C68B8
:1035A800034343EA04241368424DD86C284020435F
:1035B800D8640020D464B5E60D68D3F8B060AC4098
:1035C8003443092DC3F8B04042D905EB45048F6850
:1035D8009E69A4F11B014FF0070E0EFA01FE07FACF
:1035E80001F426EA0E01214399611EE744EA456485
:1035F800DC60B8E6304989684D023FF51EAF99682E
:1036080001F0030101294CD11B68DB0749D5536C34
:1036180043F02003536401200FE71D6EA40605F054
:10362800F845A54224D05D6E05F0F845AC4229D096
:103638009D6E05F0F845AC421FD0DD6E05F0F845EB
:10364800AC427FF4DFAEDC6E24F00044DC66D9E6E1
:103658006C1C8F685E6904EB44014FF0070E0EFA8C
:1036680001FE07FA01F426EA0E0121435961DEE65C
:103678001D6E25F000451D66D5E79D6E25F00045B9
:103688009D66DAE75D6E25F000455D66D0E7631E4E
:103698001C469AE60C68240285E71968C907B6D45F
:1036A80017E705498B6843F480038B60C5E600BFC4
:1036B80000F0FF830020088200030050600700200C
:1036C80083DE1B43074AD3684FF6FF010B40000215
:1036D80043F0BF6300F4E06043F400330343D36076
:1036E800704700BF00ED00E0184B70B4DC68C4F30D
:1036F8000224C4F10706042E04F1040328BF04269B
:10370800062B17D9033C0125A540013D2A4001237A
:10371800B340013B1940A140002841EA02010CDBFB
:1037280000F1604000F561400901C9B280F800135A
:1037380070BC704700221446E9E7054B00F00F0003
:1037480009010344C9B2197670BC704700ED00E066
:10375800FCEC00E000F01F0101234009024A8B4005
:1037680042F82030704700BF00E100E00138B0F1B6
:10377800807F0ED2084B10B4084C5860F02084F8B3
:1037880023000022072110469A6019605DF8044B57
:1037980070470120704700BF10E000E000ED00E036
:1037A800704700BF08B5FFF7FBFF08BD88B1037974
:1037B80010B503F0FF0204463BB1002302210122A9
:1037C800217118462361227110BD4271FEF7D8FBA2
:1037D800F3E70120704700BF4379012B1DD0022376
:1037E80070B40371046891E8480040F6FE752168DA
:1037F8009540334321EA050193400B432360236836
:10380800C02101FA02F20125002123EA0202226006
:103818000571417170BC084670470223184670470D
:103828008C460968002900F0D9802DE9F04FDFF8AF
:10383800C0E183B000254FF0010879E04FEA45095F
:103848000323D0F800B003FA09F3DB4304F00306BE
:103858000BEA030B06FA09F60AF1FF3A46EA0B06E9
:10386800BAF1010F066040F29880C668DCF80820BB
:10387800334002FA09F21A43E300C26054D5584BA8
:10388800574A9B6943F001039361936925F0030646
:1038980006F1804603F0010306F58036019305F032
:1038A8000303019AB2689B004FF00F0909FA03F964
:1038B800B0F1904F22EA090A00F08680494A904206
:1038C80000F08480484A904200F08380474A904242
:1038D8000BBF4FF00309052209FA03F302FA03F3B9
:1038E80043EA0A03B360DEF80030FA43E60354BF44
:1038F80013403B43CEF80030DEF80430A60354BF33
:1039080013403B43CEF80430DEF80830E60254BFDB
:1039180013403B43CEF80830DEF80C30A40254BF05
:1039280013403B43CEF80C30013531FA05F348D04B
:1039380008FA05F212EA0107F6D0DCF8044024F090
:10394800100ABAF1020F7FF479AF4FEAD50900EBFC
:10395800890905F00703D9F820609B004FF00F0A8A
:103968000AFA03FB26EA0B0ADCF8106006FA03F3EE
:1039780043EA0A03C9F820304FEA45090323D0F87F
:1039880000A003FA09F3DB4304F0030603EA0A0A7A
:1039980006FA09F646EA0A060660866806EA030A8F
:1039A800DCF80C6006FA09F646EA0A068660D0F8E2
:1039B80004A0C4F300162AEA0202AE401643466089
:1039C80053E703B0BDE8F08F002389E708FA03F353
:1039D80086E74FF0020909FA03F381E7704700BF51
:1039E800001002400004004800080048000C00488D
:1039F800000401400AB9816270478161704700BFC5
:103A0800002800F0CB822DE9F0430368D90783B082
:103A1800044643D5B7494A6802F00C02042A00F06C
:103A2800B0814A6802F00C02082A00F0A681636897
:103A3800B3F5803F00F01882002B00F06181B3F5E8
:103A4800A02F00F09E82AB4B1A6822F480321A60D5
:103A58001A6822F480221A60A64DA268EB6A23F045
:103A68000F031343EB62FFF795F94FF4003807464D
:103A7800012605E0FFF78EF9C01B642800F2798162
:103A880098FAA8F32A6898FAA8F3B3FA83F303F02C
:103A98001F0306FA03F31342ECD023689F0742D5AD
:103AA800944A516811F00C0F00F0C980516801F078
:103AB8000C01082900F0BF802269002A00F0AE81BD
:103AC800012292FAA2F3B3FA83F303F1845303F5C4
:103AD80084139B0016461A60FFF75CF94FF0020842
:103AE8000746844D05E0FFF755F9C01B022800F290
:103AF800408198FAA8F32A6898FAA8F3B3FA83F3EE
:103B080003F01F0306FA03F31342ECD02968F822E6
:103B180092FAA2F26369B2FA82F221F0F8019340B4
:103B28000B432B6023681D0721D458074DD5714BD3
:103B3800DA69D10040F1C1804FF000086E4D2B6862
:103B4800DA0540F10681E368012B00F09381002B30
:103B580000F02E81052B674B1A6A00F0B58122F020
:103B680001021A621A6A22F004021A6287E1A26943
:103B7800002A7BD0012292FAA2F1604B5D4EB1FA85
:103B880081F10B449B0015461A60FFF703F94FF0CB
:103B98000208074605E0FFF7FDF8C01B022800F2FF
:103BA800E88098FAA8F398FAA8F398FAA8F3726A42
:103BB80098FAA8F3B3FA83F303F01F0305FA03F3A3
:103BC8001342E8D023685807B1D4E3697BB3494D61
:103BD8006A6802F00C02082A44D0022B4FF0807366
:103BE80000F07A8193FAA3F3B3FA83F303F18453D1
:103BF80003F584139B0000221A60FFF7CBF84FF0FF
:103C080000740746012605E0FFF7C4F8C01B022828
:103C180000F2AF8094FAA4F32A6894FAA4F3B3FAF2
:103C280083F303F01F0306FA03F31342ECD10020D9
:103C380003B0BDE8F0835268D6033FF53DAF0222DA
:103C480092FAA2F12B49086892FAA2F2B2FA82F229
:103C580002F01F02012101FA02F2024239D0226960
:103C68008A4236D0012003B0BDE8F083012595FAD9
:103C7800A5F1224B1F4EB1FA81F10B449B004FF086
:103C880002081A60FFF786F8074604E0FFF782F893
:103C9800C01B02286DD898FAA8F398FAA8F398FAE6
:103CA800A8F3726A98FAA8F3B3FA83F303F01F0330
:103CB80005FA03F31342E9D184E7DA6942F0805246
:103CC800DA61DB6903F080530193019B4FF001082F
:103CD80034E7084DF821286891FAA1F16269B1FA30
:103CE80081F120F0F8008A4002432A601D077FF521
:103CF8001CAF3CE70010024000700040208190108B
:103D0800A74D2B6823F480332B602B6823F4802382
:103D18002B60EB6AA26823F00F031343EB62FFF7F3
:103D280039F84FF400380746012604E0FFF732F867
:103D3800C01B64281DD898FAA8F32A6898FAA8F333
:103D4800B3FA83F303F01F0306FA03F31342EDD12A
:103D5800A3E62B6843F480732B60FFF71BF8064635
:103D68002B68DB053FF5EFAEFFF714F8801B6428DE
:103D7800F6D9032003B0BDE8F0834A68D2037FF583
:103D880056AE4FF4003292FAA2F18549086892FAC9
:103D9800A2F2B2FA82F202F01F02012101FA02F243
:103DA80002423FF47BAE6268002A7FF477AE59E79F
:103DB8007B4D2B6A23F001032B622B6A23F004034B
:103DC8002B62FEF7E7FF4FF002090746012613E0D2
:103DD80099FAA9F36A6A99FAA9F3B3FA83F303F093
:103DE8001F0306FA03F313420ED0FEF7D3FF41F286
:103DF8008833C01B9842BCD899FAA9F399FAA9F359
:103E0800002BE5D02A6AE6E7B8F1000F3FF4DDAEF3
:103E1800634AD36923F08053D361D6E6012595FA26
:103E2800A5F3B3FA83F303F1845303F584139B00DA
:103E38004FF002081A60FEF7ADFF594E074604E03E
:103E4800FEF7A8FFC01B022893D898FAA8F3326897
:103E580098FAA8F3B3FA83F303F01F0305FA03F300
:103E68001342EDD123685EE64D4A136843F480336C
:103E78001360F1E54A4A136A43F001031362FEF73F
:103E880089FF4FF002090746454E012514E099FACB
:103E9800A9F3726A99FAA9F3B3FA83F303F01F033B
:103EA80005FA03F31342AFD1FEF774FF41F28833EA
:103EB800C01B98423FF65DAF99FAA9F399FAA9F3A6
:103EC800002BE4D0326AE5E742F004021A621A6A6B
:103ED80042F001021A62D2E793FAA3F3B3FA83F32A
:103EE80003F1845303F584139B0000221A60FEF744
:103EF80051FF4FF000780746012605E0FEF74AFF1C
:103F0800C01B02283FF635AF98FAA8F32A6898FA3A
:103F1800A8F3B3FA83F303F01F0306FA03F313427B
:103F2800ECD16A68636A216A22F474120B43134362
:103F38006B604FF0807393FAA3F3B3FA83F303F142
:103F4800845303F584139B004FF000741E60FEF742
:103F580021FF134E0746012505E0FEF71BFFC01B96
:103F680002283FF606AF94FAA4F3326894FAA4F351
:103F7800B3FA83F303F01F0305FA03F31342ECD0FB
:103F880055E603F18043A3F53C331A6842F48022D6
:103F98001A601A6842F480321A605DE501207047A1
:103FA8000010024078B1654A136803F007038B429A
:103FB8000BD2136823F007030B431360136803F055
:103FC8000703994201D00120704703682DE9F041A9
:103FD8009F0706D55A4C8568626822F0F0022A438A
:103FE8006260DE0704460D4630D54268012A00F0BB
:103FF8009380022A0CBF4FF00073022393FAA3F1B7
:104008004F49086893FAA3F3B3FA83F303F01F0345
:10401800012101FA03F3034228D0494E736823F0C3
:10402800030313437360FEF7B5FE41F288378046F9
:1040380005E0FEF7AFFEA0EB0800B84269D8736848
:10404800626803F00C03B3EB820FF2D13B4A1368AA
:1040580003F007039D420CD2136823F007032B4398
:104068001360136803F007039D4202D00120BDE8E6
:10407800F0812368580706D53149E0684A6822F478
:10408800E06202434A60190707D52D4A216953683F
:1040980023F4605343EAC1035360294B5A6802F082
:1040A8000C01082916D02749254BF0225B6892FAA3
:1040B800A2F2B2FA82F203F0F003D3402248234A74
:1040C800C35C042021FA03F31360FEF721FE0020ED
:1040D800BDE8F0814FF4701191FAA1F1B1FA81F1C4
:1040E80002F47010C8401A4CD96A235C0F2090FA69
:1040F800A0F0B0FA80F001F00F01C1401548D203DA
:10410800405C4ABF0F491449B1FBF0F101FB03F1D0
:10411800CAE70320BDE8F0814FF4003393FAA3F116
:104128000749096893FAA3F3B3FA83F303F01F036B
:1041380002FA03F30B427FF470AF97E700200240C6
:104148000010024000127A007C80000860070020FE
:1041580094800008A480000800093D00144A5368B0
:1041680003F00C01082921D14FF4701191FAA1F143
:1041780003F47010B1FA81F120FA01F10D48D26A06
:10418800405C0F2191FAA1F1DB03B1FA81F102F051
:104198000F024CBF084B094B22FA01F208498A5C0E
:1041A80048BFB3FBF2F303FB00F0704702487047C7
:1041B800001002409480000800127A0000093D00B7
:1041C800A4800008014B1868704700BF60070020F2
:1041D800084B4FF4E0625B6892FAA2F2B2FA82F2FC
:1041E80003F4E063D3400449044ACB5C1068D84028
:1041F800704700BF001002408C8000086007002054
:10420800084B4FF460525B6892FAA2F2B2FA82F25B
:1042180003F46053D3400449044ACB5C1068D84087
:10422800704700BF001002408C8000086007002023
:104238002DE9F04304460068C50383B03CD5794BAB
:10424800DA69D10040F1A180774D2B68DA054FF08B
:10425800000640F1AA80734D2B6A13F4407320D0F6
:10426800616801F4407293421CD0296A4FF480338C
:1042780021F4407093FAA3F26C4FB2FA82F23A44F6
:1042880092004FF0010EC2F800E093FAA3F3B3FADC
:1042980083F33B449B000022CF071A60286200F199
:1042A8009B8061685F4A136A23F440730B4313626F
:1042B800002E40F08C802068C50706D5594AA168B1
:1042C800136B23F003030B431363810606D5554A8A
:1042D800E168136B23F010030B431363820306D5C5
:1042E800504A216B536823F480030B435360430601
:1042F80006D54C4A2169136B23F020030B43136343
:10430800070406D5474A6169136B23F040030B4342
:104318001363860506D5434AE169536823F400030D
:104328000B435360050606D53E4AA169D36A23F4B8
:10433800F8730B43D362C10406D53A4A216A136B5A
:1043480023F480730B431363420306D5354A616A2D
:10435800136B23F480630B43136303030DD410F42E
:10436800801007D02F4AE16A136B23F400530B43E4
:104378001363002003B0BDE8F0832A4AA16A136BD7
:1043880023F400630B431363E9E7DA69264D42F02F
:104398008052DA61DB6903F080530193019B2B683B
:1043A800DA054FF001063FF556AF2B6843F48073EA
:1043B8002B60FEF7EFFC07462B68DB053FF54BAF9C
:1043C800FEF7E8FCC01B6428F6D90320D2E7D369BE
:1043D80023F08053D3616EE77746FEF7DBFC4FF09E
:1043E8000209804615E099FAA9F36A6A99FAA9F3CD
:1043F800B3FA83F303F01F0307FA03F313427FF4BE
:1044080050AFFEF7C7FC41F28833A0EB0800984292
:10441800DBD899FAA9F399FAA9F3002BE3D02A6A11
:10442800E4E700BF001002400070004000819010D7
:1044380000285BD038B590F83D30044603F0FF0201
:10444800002B35D023682A49022284F83D208B426C
:104458001A6832D0B3F1804F36D001F5A0518B42A3
:1044680016D001F580618B4212D001F580618B4234
:104478000ED0A569E068616822F080022A431A60BC
:10448800D862996201225A61002084F83D2038BD23
:104498002069A16922F44072024322F080020A4393
:1044A8001A60E268DA6262689A6262691A63E9E726
:1044B80080F83C20FDF796FDC4E7A5682069A1694E
:1044C80022F070022A43E5E7A5682069A16922F075
:1044D80070022A4322F44072024322F080020A4307
:1044E8001A60E268DA6262689A62CBE70120704774
:1044F800002C0140704700BF00285BD038B590F809
:104508003D30044603F0FF02002B35D023682A49CA
:10451800022284F83D208B421A6832D0B3F1804FD2
:1045280036D001F5A0518B4216D001F580618B423F
:1045380012D001F580618B420ED0A569E0686168F0
:1045480022F080022A431A60D862996201225A61D5
:10455800002084F83D2038BD2069A16922F440720A
:10456800024322F080020A431A60E268DA62626853
:104578009A6262691A63E9E780F83C20FFF7BAFF9C
:10458800C4E7A5682069A16922F070022A43E5E71B
:10459800A5682069A16922F070022A4322F44072BA
:1045A800024322F080020A431A60E268DA62626813
:1045B8009A62CBE701207047002C014090F83C300C
:1045C800012B02D102231846704702230268F0B477
:1045D80080F83D3091E83000936823F070032B4356
:1045E80023F4803323F007032343502D4FF00104B5
:1045F80080F83C40936043D01FD9602D2DD0702D9A
:104608000AD1CB688D680C6991682B4343EA04236F
:1046180021F47F410B439360D36823F04003D360B8
:10462800D3680124002123F48043D36080F83D40FF
:1046380080F83C10F0BC08467047402DECD1156A54
:10464800146A0E6924F001041462936923F0F003DC
:1046580043EA061393611562DEE7146A8D680E69F2
:1046680024F0100414629169136A21F4704123F054
:10467800A00341EA063143EA051391611362CBE7CF
:10468800156A166A8C680F6926F001061662936926
:1046980025F00A0123F0F003214343EA071393614D
:1046A8001162B9E7F0B4046A8F680E68194D24F0F6
:1046B80001040462036A4468826922F4803223F0A8
:1046C800020322F07302A84243EA070342EA060201
:1046D80012D005F5A055A8420ED005F58065A84270
:1046E8000AD005F58065A84206D049684460826111
:1046F800F0BC416303627047CD688E6923F00803FC
:104708002B434D6924F44074354323F004032C43B0
:10471800EBE700BF002C0140F0B4046A8F680E6814
:10472800194D24F010040462026A4468836923F076
:10473800807322F0200223F4E643A84242EA0712DB
:1047480043EA062310D0114DA84214D0104DA842B8
:1047580011D005F58065A8420DD049684460836191
:10476800F0BC816302627047CD6822F0800242EAA1
:10477800051222F040024D698E6924F440643543E5
:1047880044EA8504E9E700BF002C014000400140ED
:1047980000440140F0B4046A8F680E68194D24F48F
:1047A80080740462026A4468C36923F4803322F483
:1047B800007223F07303A84242EA072243EA060381
:1047C80010D0114DA84214D0104DA84211D005F5B3
:1047D8008065A8420DD049684460C361F0BCC163DC
:1047E80002627047CD6822F4006242EA052222F490
:1047F80080624D698E6924F44054354344EA0514B7
:10480800E9E700BF002C014000400140004401409E
:10481800F0B4046A8F680E68154D24F4805404625D
:10482800026A4468C36923F0807322F4005223F4B7
:10483800E643A84242EA073243EA062312D005F5C6
:10484800A055A8420ED005F58065A8420AD005F506
:104858008065A84206D049684460C361F0BC016421
:10486800026270474D6924F4804444EA8514F2E7F3
:10487800002C0140F8B590F83C30012B57D00D467C
:1048880002230121044680F83C1080F83D30142AA8
:1048980046D8DFE802F04E45454560454545734535
:1048A800454585454545984545450B000368D5F878
:1048B80008E0186A2F68654E20F480101862196A9B
:1048C80058685A6D22F0807221F4001122F4E042F7
:1048D800B34241EA0E5142EA072200F0B08006F5E1
:1048E800A056B34200F0AB8006F58066B34200F0F4
:1048F800A68006F58066B34200F0A1806E68586015
:104908005A65DE651962596D286941F40061596577
:10491800596D21F4806159655A6D42EA00225A6541
:104928000123002084F83D3084F83C00F8BD0220C3
:10493800F8BD29460068FFF7B5FE2368286999691C
:1049480041F008019961996921F0040199619A6916
:1049580002439A61E4E729460068FFF7DDFE236811
:104968002869996941F400619961996921F4806124
:1049780099619A6942EA00229A61D1E7294600685A
:10498800FFF708FF23682869D96941F00801D96150
:10499800D96921F00401D961DA690243DA61BFE714
:1049A80029460068FFF734FF23682869D96941F46C
:1049B8000061D961D96921F48061D961DA6942EA73
:1049C8000022DA61ACE70368D5F808E0186A2F68B6
:1049D8001E4E20F480301862196A58685A6D22F405
:1049E800803221F4003122F07002B34241EA0E41D4
:1049F80042EA07021DD006F5A056B34219D006F5C3
:104A08008066B34215D006F58066B34211D06E6851
:104A180058605A659E651962596D286941F0080108
:104A28005965596D21F0040159655A6D02435A655B
:104A380076E76E6920F4803040EA0620E7E76E6981
:104A480020F4802040EA862058E700BF002C01406F
:104A580090F83C30012B16D0026870B40E4D5368A4
:104A68009468AA4212D00E688D6823F0700324F06F
:104A780080013343002429435360916080F83C400F
:104A8800204670BC70470223184670474D6823F4CF
:104A980070032B43E7E700BF002C014090F83C303F
:104AA800012B29D0F0B491E8E000CB680C6923F41D
:104AB80040733B4323F48063334323F400632B4365
:104AC80023F480530246234348698E6A124D8C6949
:104AD80023F40053034323F440431068334323F47F
:104AE8007023A84243EA044308D000214364F0BC81
:104AF800084682F83C107047022070474D6ACC691E
:104B0800096A23F4700343EA055323F080732343AF
:104B180023F000730B43E8E7002C0140436ADA07EF
:104B280010B406D50168846A4A6822F40032224328
:104B38004A609C0706D50168C46A4A6822F4803234
:104B480022434A60590706D50168046B4A6822F473
:104B5800802222434A601A0706D50168446B4A68D6
:104B680022F4004222434A60DC0606D50168846BC1
:104B78008A6822F4805222438A60990606D5016821
:104B8800C46B8A6822F4005222438A605A0609D507
:104B98000168046C4A6822F480122243B4F5801F2D
:104BA8004A600BD01B0606D50268816C536823F453
:104BB80000230B4353605DF8044B70474A68446C0C
:104BC80022F4C00222434A60ECE700BF002800F04C
:104BD800AF80F8B590F86930044603F0FF02002B67
:104BE80031D0256827696669E169894A242384F8F0
:104BF80069302868A36820F00100286028683B43D2
:104C0800334302400B4313432B606A68E668A36989
:104C1800276A804822F4405232436A60AA683B43BC
:104C280022F4306213438542AB606FD07A4B9D42C9
:104C38000ED003F580639D420AD0B1F5004F00F015
:104C4800A2800120F8BD80F86820FDF72FFAC8E798
:104C5800B1F5004F00F09480FFF7BAFA626800EBF4
:104C68005203B3FBF2F39BB2EB60636A002B49D1AA
:104C780023685A6822F490425A609A6822F02A02FD
:104C88009A601A68002142F001021A60E166FEF794
:104C980081F823681A68110706460BD41A68520768
:104CA80024D42023002084F8693084F8680084F82C
:104CB8006A30F8BDDD6915F40015EFD1FEF76AF822
:104CC800801BB0F1007F2368F4D31A6822F4D072F5
:104CD8001A609A68202122F001029A60032084F861
:104CE800691084F8685084F86A10F8BDDD6915F415
:104CF8008005D6D1FEF74EF8801BB0F1007F2368FF
:104D0800F4D3E2E72046FFF709FFB1E7434B444AF3
:104D18001B6B03F00303B1F5004FD35C3BD1082BA9
:104D280034D8DFE803F02D2A203315333333070056
:104D3800012070476268530803F58033B3FBF2F330
:104D48009BB223F00F02C3F342031343EB608CE7DB
:104D5800FFF704FA62682568530803EB4003B3FBC6
:104D6800F2F39BB2EDE76268530803F5740303F5A9
:104D78001053B3FBF2F39BB2E3E7FFF741FAE9E71D
:104D8800FFF726FAE6E70023EB605AE7214B0022FB
:104D9800DA600120F8BD082B3FF653AF01A252F8A4
:104DA80023F000BF614C0008D14D0008014E0008F7
:104DB8004B4C0008FB4D00084B4C00084B4C0008BE
:104DC8004B4C0008E74D0008FFF71AFA62681149D2
:104DD80000EB5203B3FBF2F39BB2CB6045E762688A
:104DE8000C49530803F50043B3FBF2F39BB2CB60C5
:104DF8003BE7FFF7B3F9E9E762680649530803F5AB
:104E0800F40303F59053B3FBF2F39BB2CB602CE7AA
:104E1800F369FFEF003801400044004000100240F1
:104E2800B4800008C0887047C388408803FB00F03E
:104E3800000C704710B40B14028809B203FB03F48A
:104E480002FB02F201FB0144944285B019D990F8A3
:104E5800B020C2EB1464E4B200EB4400428802FBC9
:104E680001F1002902FB03F3BCBF01F5FF417F31CB
:104E7800002BBCBF03F5FF437F3341F3CF3143F32E
:104E8800CF3389B200209BB261F30F0063F31F4058
:104E980005B05DF8044B7047014481F83020704735
:104EA800014491F83000704700EB41014A86704791
:104EB80000EB4101B1F93200704700BFC38E012BEE
:104EC80004D1034A136843F001031360704700BF1D
:104ED80000740040C28E012A00D0704738B590F89F
:104EE8003010FDF77BFB4FF4700393FAA3F34FF4F4
:104EF8008011B3FA83F3D940094D0A4C55F82120A3
:104F080003B222F47F4203F5004322F0F002134378
:104F180045F82130636843F00103636038BD00BF82
:104F280008740040007400400023438203754375F1
:104F380080F8963080F8973080F8983080F899306B
:104F480080F89A3080F81B3180F81C3180F81D31C8
:104F5800704700BF18B180E80E00009BC36070471F
:104F6800A8B110B444780378234454B1013CE4B2A6
:104F780002340444421C12F8011F0B4494429BB2B1
:104F8800F9D15DF8044B03EB132303F0FF007047DE
:104F980010B400240473C0F80E40C482047680E87C
:104FA8000E005DF8044B70470123C181C282037370
:104FB80003764376704700BF30B4002302250124EE
:104FC800057304760182C282437630BC704700BF05
:104FD80010B401220324002383B0C0F81210047314
:104FE8000276437603B05DF8044B704710B5032191
:104FF8000446006801F0BCFF08B10123237610BD08
:105008000068072101F0B4BF006802F053B800BF80
:105018000068012101F0ACBF10B1037E012B00D064
:105028007047017B022910B504460FD0032904D02C
:1050380001291DD00323237610BD8268D0F81210F1
:10504800116182F824300223237610BD83684068FA
:10505800002183F8241001F0DDFEE28AB4F9101073
:10506800606801F0DBFE0028EDD10323237610BD34
:1050780083684068002283F8242001F0CBFEE28A8E
:10508800B4F90E10606801F0C9FE0028EDD0DAE727
:10509800006802F00DB800BF407E7047037B022B0A
:1050A80015D0032B0BD0012B01D001207047B0F98C
:1050B8000E30002BACBF01204FF0FF307047B0F925
:1050C8001230002BACBF01204FF0FF307047B0F911
:1050D8001030002BACBF01204FF0FF30704700BFED
:1050E800037B012B0CBFB0F90E000020704700BFF6
:1050F800406801F01BBF00BF08B5406801F078FEAA
:10510800BDE8084001F020BE406801F07BBE00BF4A
:105118008368186883B263F30F0082B002B07047E7
:105128008368586883B263F30F0082B002B0704797
:105138008368D86883B263F30F0082B002B0704707
:105148008368186983B263F30F0082B002B07047B6
:105158008368D3F8160083B263F30F0082B002B0FD
:10516800704700BF8368D3F81A0083B263F30F0057
:1051780082B002B0704700BF8368B3F91E00704761
:105188008368598299827047034610B540689C68C5
:1051980001F0D4FEC0F30F432082638210BD00BF2C
:1051A80044F6E61102B2030C12FB01F013FB01F303
:1051B8004042A0EB4300C013B0F5004F84B004DABE
:1051C80010F5004F0CDA084B01E047F6FF7392B276
:1051D80000209BB262F30F0063F31F4004B07047D6
:1051E80003B2F4D1004BF2E70180FFFF30B401F5C0
:1051F8000041C1F3891101F44072B2F5807F05B214
:1052080084B04FEA204055D043D9B2F5007F31D061
:10521800B2F5407F09D1C9B22C4ACB4332F81140CC
:10522800DBB2644232F9133024B205FB04F200FB0E
:105238001322D213B2F5004F28DA12F5004F37DBEC
:1052480012B235D004FB00F405FB0343DB13B3F5BE
:10525800004F18DA13F5004F01DB1BB200D11C4BCD
:1052680092B200209BB262F30F0063F31F4004B0B8
:1052780030BC7047C9B2CB43DBB2144A32F9134091
:1052880032F91130D1E747F6FF73E9E747F6FF72C5
:10529800D8E7002AC9D1C9B2CB43DBB20B4A32F8EE
:1052A800134032F8113064425B4224B21BB2BCE7AF
:1052B800074AC7E7C9B2CB43044ADBB232F9114007
:1052C80032F813305B421BB2AFE700BFB88000086A
:1052D8000180FFFF30B401F50041C1F3891101F4E9
:1052E8004072B2F5807F05B284B04FEA20403CD0CE
:1052F8002CD9B2F5007F20D0B2F5407F09D1C9B2D0
:105308001F4ACB4332F81140DBB2644232F9133002
:1053180024B200FB03F205FB042204FB00F005FBAA
:105328001303C2F3CF320020C3F3CF3362F30F006D
:1053380063F31F4004B030BC7047C9B2CB43DBB243
:105348000F4A32F9134032F91130E2E7002AE0D16E
:10535800C9B2CB43DBB20A4A32F8134032F8112003
:105368006442524224B213B2D3E7C9B2CB43DBB290
:10537800034C34F8132034F91140524213B2C8E7F1
:10538800B880000800F50040C0F3891000F44071AF
:10539800B1F5807F82B031D021D9B1F5007F15D029
:1053A800B1F5407F09D1C0B21A49C34331F8102082
:1053B800DBB2524231F9133012B292B200209BB2E2
:1053C80062F30F0063F31F4002B07047C0B2C343DB
:1053D800DBB2104931F9132031F91030EDE700291B
:1053E800EBD1C0B2C343DBB20A4931F8132031F81C
:1053F800103052425B4212B21BB2DEE7C0B2C34366
:10540800044ADBB232F8133032F910205B421BB287
:10541800D3E700BFB880000810B54FF48072044687
:10542800002102F0D9FD0023C4F8003110BD00BFEF
:10543800B0F80021531C9BB27F2B88BF002330B4E7
:1054480020F8121000F1FE05A0F80221A0F80031A2
:105458000022831E33F9024FAB422244FAD1002ABC
:10546800B8BF7F32D211A0F8042130BC084670477B
:10547800B0F90401704700BF38B5057825B100229E
:10548800438AC282038238BD04460430FCF7F2FA2C
:1054980084F82600258238BD03781BB10023C38217
:1054A8001846704710B5044690F82600FCF7A6FB8E
:1054B8004FF6FF73984214D0228B238A511E01FBAA
:1054C8000303B3FBF2F39BB22382628B9A4205D3A8
:1054D800A28B9A4207D8E08AE08210BD0820E082B9
:1054E80010BD238AF1E70020F6E700BF037813B167
:1054F800808A00B27047038A016AB0F91E20808C46
:105508005B1A03FB02F3002BBCBF03F57F43FF3399
:1055180000EB234000B2704700230168028C416011
:10552800428483608362704781807047C18070477E
:10553800B0F90400704700BFB0F90600704700BF1B
:1055480081607047008B7047408B7047418470477B
:10555800B0F92200704700BFB0F90420B0F9063056
:1055680070B401FB02F2B0F91440B0F9165063B1FF
:10557800866801FB03F18B191DD4002E26DBC16858
:105588008B4203DC01698B4200DB1946868BC38B97
:10559800324141FA03F31344A34209DCAB42B6BFDC
:1055A800EA1A00222B461144816070BC18B2704779
:1055B800E21A2346F7E7002EE1DD0029DFDDC168A6
:1055C8006FF000439942E1D10B46DEE7024E33EA21
:1055D800210328BF3346D2E701000080D0F80C2110
:1055E800118BD38970B506469589D28AD0F81001F7
:1055F800D6F8084113FB01F315FB0235FFF714FC3D
:10560800002D0F4B0F4904FB00F0B8BF05F57F458F
:1056180083FB0023B8BFFF35C0172D14C0EBA313BD
:1056280003FB05F303EB43035B0081FB0321DB175B
:105638003046C3EBA141BDE87040FFF7F9BE00BF9B
:10564800B5814E1B67666666174BDA69D20714D5B3
:105658004FF080435A68596821F0700141F02001E9
:105668005960596941F001015961596802F07002A5
:1056780021F070010A435A607047DA6942F001026A
:10568800DA61DA6982B04FF0804102F001020192DA
:10569800019A4A6942F001024A61DA6922F001027C
:1056A800DA6102B0704700BF001002404368184733
:1056B80070B4B0F86060B0F844300C1483B006FBE6
:1056C80004F40191C4EBC47409B2640003FB01F152
:1056D800631A214401EBD17503EBD3726D104FEAC5
:1056E80062024FD4002AC0F28C80AD1A44BF05F57F
:1056F8007F3505F2FF35002BBCBF03F57F3303F27E
:10570800FF3300294FF00104B8BF01F57F314FEA9C
:10571800960202EBA542A0F84640B8BF01F2FF315D
:10572800C46902EBA343A2EBA141B0F85C5092B26A
:105738009BB289B2012DA0F84820A0F84A30A0F801
:105748004C101BD1B0F95650B0F95860002DB0F884
:105758005E50CCBF5219521B92B2A0F84820B0F943
:105768005A20002ECCBF5B195B1B002A9BB2CCBF12
:105778004919491BA0F84A30A0F84C10234603B039
:1057880070BC1847002A1BDB002C59DD2D1B44BFB9
:1057980005F57F3505F2FF350029B8BF01F57F31E2
:1057A8004FEA960202EBA542B8BF01F2FF3102238D
:1057B800A2EBA141A0F8463001EB6443046AB4E7C8
:1057C800AD1A44BF05F57F3505F2FF35002BBCBF88
:1057D80003F57F3303F2FF330029B8BF01F57F31AA
:1057E8004FEA96024FF0040402EBA542B8BF01F25B
:1057F800FF31A0F8464002EBA343A2EBA141846A23
:1058080093E7002C3DDD002BB8BF03F57F334FF045
:105818000001A4EB0205B8BF03F2FF33B208A0F8F9
:105828004610211EB8BF01F5FF3102EBA54202EB7D
:10583800A343B8BF01F2FF118469A3EB614174E788
:10584800A51A44BF05F57F3505F2FF35002BB8BF13
:1058580003F57F334FF00301B8BF03F2FF33A0F81D
:105868004610B208211EB8BF01F5FF3102EBA54270
:1058780002EBA343B8BF01F2FF11A3EB6141446AF5
:1058880053E70029B8BF01F57F314FF00503A5EBB9
:105898000405B8BF01F2FF31B208A0F84630231E54
:1058A800B8BF03F5FF3302EBA542A2EBA141B8BF95
:1058B80003F2FF1301EB6343C46A36E783681847B2
:1058C80010B5044682B099B1012902D0002002B077
:1058D80010BDB0F85230C3B1013B9BB2A0F85230B2
:1058E800002BF3D103690191984701990846EEE727
:1058F80083689847B4F86230A4F85230002BE5D199
:105908002046236998470120E1E7084602B010BD08
:10591800036B1847D0F8B030F0B5DA6890F8465005
:105928001B686FF001041461052DD3F880C0D3F80B
:1059380084E05CD80123AB4013F0210F2CD113F085
:10594800060F63D0022DC46E0CBF1FFA8EF31FFA28
:105958008CF3E21A624B9A4280F29A801A460B80C4
:105968001E4648F20103022D446F0BBF1FFA8CFC40
:105978001FFA8EFEA4EB0C04A4EB0E046442A41AD6
:10598800B4F5004F80F28D80554FBC42C0F295802F
:1059980027B24F80A4B230E0052D026F0CBF1FFA6A
:1059A8008EF31FFA8CF3D31A4D4A93425CDBB3F59E
:1059B800004F69DB47F6FF7213464A8014461746C4
:1059C800052D426F0BBF1FFA8CFC1FFA8EFEA2EB4F
:1059D8000C02A2EB0E025242D21AB2F5004F49DA7B
:1059E8003F4EB2424CDA0E8048F2010305E0B1F9AD
:1059F8000060B1F90270B3B2BCB223445B42A0F8B4
:105A08005A30A0F85660A0F85870F0BD13F0180F7F
:105A1800EDD0032DC36E0CBF1FFA8EF21FFA8CF265
:105A28009B1A2F4A934246DBB3F5004FA8BF47F6AF
:105A3800FF730B80032D046F294F0BBF1FFA8CFCDB
:105A48001FFA8EFEA4EB0C04A4EB0E04BC4238DB58
:105A5800B4F5004F3CDBB1F9006047F6FF734B80AB
:105A68001C461F46B3B2C8E713464A80174648F299
:105A78000104A5E747F6FF7213460A801646BCE7FD
:105A880016B20E8093B2B8E71FB24F809CB297E768
:105A9800B2F5004F0BDB47F6FF731A460B801E4624
:105AA80061E747F6FF7214464A801746A5E716B223
:105AB8000E8093B257E70A80BCE74F8048F2010492
:105AC8009BE7B1F900604F80B3B248F2010494E754
